{
  "contractName": "RegistroContract",
  "abi": [
    {
      "inputs": [],
      "stateMutability": "nonpayable",
      "type": "constructor"
    },
    {
      "anonymous": false,
      "inputs": [
        {
          "indexed": false,
          "internalType": "uint256",
          "name": "id",
          "type": "uint256"
        },
        {
          "indexed": false,
          "internalType": "string",
          "name": "titulo",
          "type": "string"
        },
        {
          "indexed": false,
          "internalType": "string",
          "name": "descripcion",
          "type": "string"
        },
        {
          "indexed": false,
          "internalType": "bool",
          "name": "done",
          "type": "bool"
        },
        {
          "indexed": false,
          "internalType": "uint256",
          "name": "createdAt",
          "type": "uint256"
        }
      ],
      "name": "RegistroCreated",
      "type": "event"
    },
    {
      "anonymous": false,
      "inputs": [
        {
          "indexed": false,
          "internalType": "uint256",
          "name": "id",
          "type": "uint256"
        },
        {
          "indexed": false,
          "internalType": "bool",
          "name": "done",
          "type": "bool"
        }
      ],
      "name": "actualizaEstado",
      "type": "event"
    },
    {
      "inputs": [],
      "name": "registroCounter",
      "outputs": [
        {
          "internalType": "uint256",
          "name": "",
          "type": "uint256"
        }
      ],
      "stateMutability": "view",
      "type": "function",
      "constant": true
    },
    {
      "inputs": [
        {
          "internalType": "uint256",
          "name": "",
          "type": "uint256"
        }
      ],
      "name": "registros",
      "outputs": [
        {
          "internalType": "uint256",
          "name": "id",
          "type": "uint256"
        },
        {
          "internalType": "string",
          "name": "titulo",
          "type": "string"
        },
        {
          "internalType": "string",
          "name": "descripcion",
          "type": "string"
        },
        {
          "internalType": "bool",
          "name": "done",
          "type": "bool"
        },
        {
          "internalType": "uint256",
          "name": "createdAt",
          "type": "uint256"
        }
      ],
      "stateMutability": "view",
      "type": "function",
      "constant": true
    },
    {
      "inputs": [
        {
          "internalType": "string",
          "name": "_titulo",
          "type": "string"
        },
        {
          "internalType": "string",
          "name": "_descripcion",
          "type": "string"
        }
      ],
      "name": "createRegistro",
      "outputs": [],
      "stateMutability": "nonpayable",
      "type": "function"
    },
    {
      "inputs": [
        {
          "internalType": "uint256",
          "name": "_id",
          "type": "uint256"
        }
      ],
      "name": "actualizarEstado",
      "outputs": [],
      "stateMutability": "nonpayable",
      "type": "function"
    }
  ],
  "bytecode": "0x6080604052600080553480156200001557600080fd5b50620000926040518060400160405280600b81526020017f4a75616e204361726c6f730000000000000000000000000000000000000000008152506040518060400160405280600981526020017f31393938383736393900000000000000000000000000000000000000000000008152506200009860201b60201c565b62000487565b600080815480929190620000ac90620003ca565b91905055506040518060a00160405280600054815260200183815260200182815260200160001515815260200142815250600160008054815260200190815260200160002060008201518160000155602082015181600101908051906020019062000119929190620001ae565b50604082015181600201908051906020019062000138929190620001ae565b5060608201518160030160006101000a81548160ff021916908315150217905550608082015181600401559050507f1e4a8e8f4f76f8700538ef6e0aeb47c6e1fea4b4cc3389ed5826842da9691fa56000548383600042604051620001a2959493929190620002c1565b60405180910390a15050565b828054620001bc9062000394565b90600052602060002090601f016020900481019282620001e057600085556200022c565b82601f10620001fb57805160ff19168380011785556200022c565b828001600101855582156200022c579182015b828111156200022b5782518255916020019190600101906200020e565b5b5090506200023b91906200023f565b5090565b5b808211156200025a57600081600090555060010162000240565b5090565b620002698162000348565b82525050565b60006200027c826200032c565b62000288818562000337565b93506200029a8185602086016200035e565b620002a58162000476565b840191505092915050565b620002bb8162000354565b82525050565b600060a082019050620002d86000830188620002b0565b8181036020830152620002ec81876200026f565b905081810360408301526200030281866200026f565b90506200031360608301856200025e565b620003226080830184620002b0565b9695505050505050565b600081519050919050565b600082825260208201905092915050565b60008115159050919050565b6000819050919050565b60005b838110156200037e57808201518184015260208101905062000361565b838111156200038e576000848401525b50505050565b60006002820490506001821680620003ad57607f821691505b60208210811415620003c457620003c362000447565b5b50919050565b6000620003d78262000354565b91507fffffffffffffffffffffffffffffffffffffffffffffffffffffffffffffffff8214156200040d576200040c62000418565b5b600182019050919050565b7f4e487b7100000000000000000000000000000000000000000000000000000000600052601160045260246000fd5b7f4e487b7100000000000000000000000000000000000000000000000000000000600052602260045260246000fd5b6000601f19601f8301169050919050565b610ad080620004976000396000f3fe608060405234801561001057600080fd5b506004361061004c5760003560e01c80638265455a14610051578063d0a56ef61461006d578063ded39a5d14610089578063e4bc2b1a146100bd575b600080fd5b61006b600480360381019061006691906106ba565b6100db565b005b61008760048036038101906100829190610732565b6101e9565b005b6100a3600480360381019061009e9190610732565b610439565b6040516100b49594939291906107fa565b60405180910390f35b6100c561058c565b6040516100d291906107b6565b60405180910390f35b6000808154809291906100ed90610988565b91905055506040518060a001604052806000548152602001838152602001828152602001600015158152602001428152506001600080548152602001908152602001600020600082015181600001556020820151816001019080519060200190610158929190610592565b506040820151816002019080519060200190610175929190610592565b5060608201518160030160006101000a81548160ff021916908315150217905550608082015181600401559050507f1e4a8e8f4f76f8700538ef6e0aeb47c6e1fea4b4cc3389ed5826842da9691fa560005483836000426040516101dd9594939291906107fa565b60405180910390a15050565b6000600160008381526020019081526020016000206040518060a00160405290816000820154815260200160018201805461022390610925565b80601f016020809104026020016040519081016040528092919081815260200182805461024f90610925565b801561029c5780601f106102715761010080835404028352916020019161029c565b820191906000526020600020905b81548152906001019060200180831161027f57829003601f168201915b505050505081526020016002820180546102b590610925565b80601f01602080910402602001604051908101604052809291908181526020018280546102e190610925565b801561032e5780601f106103035761010080835404028352916020019161032e565b820191906000526020600020905b81548152906001019060200180831161031157829003601f168201915b505050505081526020016003820160009054906101000a900460ff16151515158152602001600482015481525050905080606001511581606001901515908115158152505080600160008481526020019081526020016000206000820151816000015560208201518160010190805190602001906103ad929190610592565b5060408201518160020190805190602001906103ca929190610592565b5060608201518160030160006101000a81548160ff021916908315150217905550608082015181600401559050507f34dec63a7d8de85969c1345ffe683ce838ccad94e75814a5d3b7e07300dabb9c82826060015160405161042d9291906107d1565b60405180910390a15050565b600160205280600052604060002060009150905080600001549080600101805461046290610925565b80601f016020809104026020016040519081016040528092919081815260200182805461048e90610925565b80156104db5780601f106104b0576101008083540402835291602001916104db565b820191906000526020600020905b8154815290600101906020018083116104be57829003601f168201915b5050505050908060020180546104f090610925565b80601f016020809104026020016040519081016040528092919081815260200182805461051c90610925565b80156105695780601f1061053e57610100808354040283529160200191610569565b820191906000526020600020905b81548152906001019060200180831161054c57829003601f168201915b5050505050908060030160009054906101000a900460ff16908060040154905085565b60005481565b82805461059e90610925565b90600052602060002090601f0160209004810192826105c05760008555610607565b82601f106105d957805160ff1916838001178555610607565b82800160010185558215610607579182015b828111156106065782518255916020019190600101906105eb565b5b5090506106149190610618565b5090565b5b80821115610631576000816000905550600101610619565b5090565b600061064861064384610880565b61085b565b90508281526020810184848401111561066457610663610a63565b5b61066f8482856108e3565b509392505050565b600082601f83011261068c5761068b610a5e565b5b813561069c848260208601610635565b91505092915050565b6000813590506106b481610a83565b92915050565b600080604083850312156106d1576106d0610a6d565b5b600083013567ffffffffffffffff8111156106ef576106ee610a68565b5b6106fb85828601610677565b925050602083013567ffffffffffffffff81111561071c5761071b610a68565b5b61072885828601610677565b9150509250929050565b60006020828403121561074857610747610a6d565b5b6000610756848285016106a5565b91505092915050565b610768816108cd565b82525050565b6000610779826108b1565b61078381856108bc565b93506107938185602086016108f2565b61079c81610a72565b840191505092915050565b6107b0816108d9565b82525050565b60006020820190506107cb60008301846107a7565b92915050565b60006040820190506107e660008301856107a7565b6107f3602083018461075f565b9392505050565b600060a08201905061080f60008301886107a7565b8181036020830152610821818761076e565b90508181036040830152610835818661076e565b9050610844606083018561075f565b61085160808301846107a7565b9695505050505050565b6000610865610876565b90506108718282610957565b919050565b6000604051905090565b600067ffffffffffffffff82111561089b5761089a610a2f565b5b6108a482610a72565b9050602081019050919050565b600081519050919050565b600082825260208201905092915050565b60008115159050919050565b6000819050919050565b82818337600083830152505050565b60005b838110156109105780820151818401526020810190506108f5565b8381111561091f576000848401525b50505050565b6000600282049050600182168061093d57607f821691505b6020821081141561095157610950610a00565b5b50919050565b61096082610a72565b810181811067ffffffffffffffff8211171561097f5761097e610a2f565b5b80604052505050565b6000610993826108d9565b91507fffffffffffffffffffffffffffffffffffffffffffffffffffffffffffffffff8214156109c6576109c56109d1565b5b600182019050919050565b7f4e487b7100000000000000000000000000000000000000000000000000000000600052601160045260246000fd5b7f4e487b7100000000000000000000000000000000000000000000000000000000600052602260045260246000fd5b7f4e487b7100000000000000000000000000000000000000000000000000000000600052604160045260246000fd5b600080fd5b600080fd5b600080fd5b600080fd5b6000601f19601f8301169050919050565b610a8c816108d9565b8114610a9757600080fd5b5056fea2646970667358221220f79620b208e072c9af67eae08d7f69ba03b9316bd40907774096e71c05af1cb964736f6c63430008060033",
  "immutableReferences": {},
  "source": "// SPDX-License-Identifier: MIT\r\npragma solidity >=0.4.22 <0.9.0;\r\n\r\ncontract RegistroContract {\r\n\r\n    uint public registroCounter = 0;\r\n\r\n    constructor (){\r\n        createRegistro(\"Juan Carlos\",\"199887699\");\r\n    }\r\n\r\n    event RegistroCreated(\r\n        uint id,\r\n        string titulo,\r\n        string descripcion,\r\n        bool done,\r\n        uint createdAt\r\n    );\r\n\r\n    event actualizaEstado(\r\n        uint id,\r\n        bool done\r\n    );\r\n\r\n    struct Registro{\r\n        uint id;\r\n        string titulo;\r\n        string descripcion;\r\n        bool done;\r\n        uint createdAt;\r\n    }\r\n\r\n    mapping (uint256 => Registro) public registros;\r\n\r\n    function createRegistro(string memory _titulo, string memory _descripcion)public{\r\n        registroCounter++;\r\n        registros[registroCounter] = Registro(registroCounter,_titulo,_descripcion,false,block.timestamp);//Blocktimestap guarda el tiempo en el q se esta creando la tarea\r\n        //Llamamos al evento\r\n        emit RegistroCreated(registroCounter,_titulo,_descripcion,false,block.timestamp);\r\n    }\r\n\r\n    function actualizarEstado(uint _id) public{\r\n        Registro memory _registro = registros[_id];\r\n        _registro.done = !_registro.done;\r\n        registros[_id] = _registro;\r\n        emit actualizaEstado(_id,_registro.done);\r\n    }\r\n}",
  "sourcePath": "C:\\Users\\Juan\\Documents\\GitHub\\DappEthereumBlockchain\\contracts\\RegistroContract.sol",
  "compiler": {
    "name": "solc",
    "version": "0.8.6+commit.11564f7e.Emscripten.clang"
  },
  "schemaVersion": "3.4.2",
  "updatedAt": "2021-08-07T17:20:46.776Z",
  "networkType": "ethereum",
  "devdoc": {
    "kind": "dev",
    "methods": {},
    "version": 1
  },
  "userdoc": {
    "kind": "user",
    "methods": {},
    "version": 1
  }
}