{
  "contractName": "RegistroContract",
  "abi": [
    {
      "inputs": [],
      "payable": false,
      "stateMutability": "nonpayable",
      "type": "constructor"
    },
    {
      "constant": true,
      "inputs": [],
      "name": "registroCounter",
      "outputs": [
        {
          "internalType": "uint256",
          "name": "",
          "type": "uint256"
        }
      ],
      "payable": false,
      "stateMutability": "view",
      "type": "function"
    },
    {
      "constant": true,
      "inputs": [
        {
          "internalType": "uint256",
          "name": "",
          "type": "uint256"
        }
      ],
      "name": "registros",
      "outputs": [
        {
          "internalType": "uint256",
          "name": "id",
          "type": "uint256"
        },
        {
          "internalType": "string",
          "name": "titulo",
          "type": "string"
        },
        {
          "internalType": "string",
          "name": "descripcion",
          "type": "string"
        },
        {
          "internalType": "bool",
          "name": "done",
          "type": "bool"
        },
        {
          "internalType": "uint256",
          "name": "createdAt",
          "type": "uint256"
        }
      ],
      "payable": false,
      "stateMutability": "view",
      "type": "function"
    },
    {
      "constant": false,
      "inputs": [
        {
          "internalType": "string",
          "name": "_titulo",
          "type": "string"
        },
        {
          "internalType": "string",
          "name": "_descripcion",
          "type": "string"
        }
      ],
      "name": "createRegistro",
      "outputs": [],
      "payable": false,
      "stateMutability": "nonpayable",
      "type": "function"
    },
    {
      "constant": false,
      "inputs": [
        {
          "internalType": "uint256",
          "name": "_id",
          "type": "uint256"
        }
      ],
      "name": "actualizarEstado",
      "outputs": [],
      "payable": false,
      "stateMutability": "nonpayable",
      "type": "function"
    }
  ],
  "bytecode": "0x60806040526000805534801561001457600080fd5b5061008f6040518060400160405280600b81526020017f4a75616e204361726c6f730000000000000000000000000000000000000000008152506040518060400160405280600981526020017f313939383837363939000000000000000000000000000000000000000000000081525061009460201b60201c565b6101ff565b6040518060a0016040528060005481526020018381526020018281526020016000151581526020014281525060016000805481526020019081526020016000206000820151816000015560208201518160010190805190602001906100fa92919061015a565b50604082015181600201908051906020019061011792919061015a565b5060608201518160030160006101000a81548160ff0219169083151502179055506080820151816004015590505060008081548092919060010191905055505050565b828054600181600116156101000203166002900490600052602060002090601f016020900481019282601f1061019b57805160ff19168380011785556101c9565b828001600101855582156101c9579182015b828111156101c85782518255916020019190600101906101ad565b5b5090506101d691906101da565b5090565b6101fc91905b808211156101f85760008160009055506001016101e0565b5090565b90565b61089e8061020e6000396000f3fe608060405234801561001057600080fd5b506004361061004c5760003560e01c80638265455a14610051578063d0a56ef6146101a3578063ded39a5d146101d1578063e4bc2b1a146102fd575b600080fd5b6101a16004803603604081101561006757600080fd5b810190808035906020019064010000000081111561008457600080fd5b82018360208201111561009657600080fd5b803590602001918460018302840111640100000000831117156100b857600080fd5b91908080601f016020809104026020016040519081016040528093929190818152602001838380828437600081840152601f19601f8201169050808301925050505050505091929192908035906020019064010000000081111561011b57600080fd5b82018360208201111561012d57600080fd5b8035906020019184600183028401116401000000008311171561014f57600080fd5b91908080601f016020809104026020016040519081016040528093929190818152602001838380828437600081840152601f19601f82011690508083019250505050505050919291929050505061031b565b005b6101cf600480360360208110156101b957600080fd5b81019080803590602001909291905050506103e1565b005b6101fd600480360360208110156101e757600080fd5b810190808035906020019092919050505061061a565b60405180868152602001806020018060200185151515158152602001848152602001838103835287818151815260200191508051906020019080838360005b8381101561025757808201518184015260208101905061023c565b50505050905090810190601f1680156102845780820380516001836020036101000a031916815260200191505b50838103825286818151815260200191508051906020019080838360005b838110156102bd5780820151818401526020810190506102a2565b50505050905090810190601f1680156102ea5780820380516001836020036101000a031916815260200191505b5097505050505050505060405180910390f35b61030561078d565b6040518082815260200191505060405180910390f35b6040518060a001604052806000548152602001838152602001828152602001600015158152602001428152506001600080548152602001908152602001600020600082015181600001556020820151816001019080519060200190610381929190610793565b50604082015181600201908051906020019061039e929190610793565b5060608201518160030160006101000a81548160ff0219169083151502179055506080820151816004015590505060008081548092919060010191905055505050565b6103e9610813565b600160008381526020019081526020016000206040518060a001604052908160008201548152602001600182018054600181600116156101000203166002900480601f0160208091040260200160405190810160405280929190818152602001828054600181600116156101000203166002900480156104aa5780601f1061047f576101008083540402835291602001916104aa565b820191906000526020600020905b81548152906001019060200180831161048d57829003601f168201915b50505050508152602001600282018054600181600116156101000203166002900480601f01602080910402602001604051908101604052809291908181526020018280546001816001161561010002031660029004801561054c5780601f106105215761010080835404028352916020019161054c565b820191906000526020600020905b81548152906001019060200180831161052f57829003601f168201915b505050505081526020016003820160009054906101000a900460ff16151515158152602001600482015481525050905080606001511581606001901515908115158152505080600160008481526020019081526020016000206000820151816000015560208201518160010190805190602001906105cb929190610793565b5060408201518160020190805190602001906105e8929190610793565b5060608201518160030160006101000a81548160ff021916908315150217905550608082015181600401559050505050565b6001602052806000526040600020600091509050806000015490806001018054600181600116156101000203166002900480601f0160208091040260200160405190810160405280929190818152602001828054600181600116156101000203166002900480156106cc5780601f106106a1576101008083540402835291602001916106cc565b820191906000526020600020905b8154815290600101906020018083116106af57829003601f168201915b505050505090806002018054600181600116156101000203166002900480601f01602080910402602001604051908101604052809291908181526020018280546001816001161561010002031660029004801561076a5780601f1061073f5761010080835404028352916020019161076a565b820191906000526020600020905b81548152906001019060200180831161074d57829003601f168201915b5050505050908060030160009054906101000a900460ff16908060040154905085565b60005481565b828054600181600116156101000203166002900490600052602060002090601f016020900481019282601f106107d457805160ff1916838001178555610802565b82800160010185558215610802579182015b828111156108015782518255916020019190600101906107e6565b5b50905061080f9190610844565b5090565b6040518060a00160405280600081526020016060815260200160608152602001600015158152602001600081525090565b61086691905b8082111561086257600081600090555060010161084a565b5090565b9056fea265627a7a7231582021f9a129cde5de9f256a30b0f2ba9c9d7f86e865041ea4fb3999fcb9dea6acfc64736f6c63430005100032",
  "source": "// SPDX-License-Identifier: MIT\r\npragma solidity >=0.4.22 <0.9.0;\r\n\r\ncontract RegistroContract {\r\n\r\n    uint public registroCounter = 0;\r\n\r\n    constructor () public{\r\n        createRegistro(\"Juan Carlos\",\"199887699\");\r\n    }\r\n\r\n    struct Registro{\r\n        uint id;\r\n        string titulo;\r\n        string descripcion;\r\n        bool done;\r\n        uint createdAt;\r\n    }\r\n\r\n    mapping (uint256 => Registro) public registros;\r\n\r\n    function createRegistro(string memory _titulo, string memory _descripcion)public{\r\n        registros[registroCounter] = Registro(registroCounter,_titulo,_descripcion,false,block.timestamp);//Blocktimestap guarda el tiempo en el q se esta creando la tarea\r\n        registroCounter++;\r\n    }\r\n\r\n    function actualizarEstado(uint _id) public{\r\n        Registro memory _registro = registros[_id];\r\n        _registro.done = !_registro.done;\r\n        registros[_id] = _registro;\r\n    }\r\n}",
  "sourcePath": "C:\\Users\\Juan\\Documents\\GitHub\\DappEthereumBlockchain\\contracts\\RegistroContract.sol",
  "compiler": {
    "name": "solc",
    "version": "0.5.16+commit.9c3226ce.Emscripten.clang"
  },
  "schemaVersion": "3.4.2",
  "updatedAt": "2021-08-04T20:05:57.413Z",
  "devdoc": {
    "methods": {}
  },
  "userdoc": {
    "methods": {}
  }
}